:020000040000FA
:060000000217FC020A8A4F
:03001300020B4697
:03002B0002157348
:03003300020CD4E8
:03003B00020B9B1A
:03004B0002148715
:030053000209BFE0
:03005B000212DFAF
:0300630002130085
:03006B00020C7A0A
:03007B00020CABC9
:10008300020A1E010020FD000201FC050000000120
:10009300D01EE21E0000E81EEE1E00000000F41E4B
:1000A3000C1F121F181F00000000000000000102B7
:1000B3000408102040801801FF0D01010401FEFF18
:1000C300000000000000000612FFFFFFFFFFFFFF1C
:1000D30001010104006C15000000E8030000FFFFAC
:1000E300C015E803000064006400B801A0BB0D0064
:1000F300A0BB0D00020200F8FF0705021E04010564
:100103001E02051E020A0A010108080310270280C5
:100113003E0102FEFFE8030A050001FFFF020A1485
:1001230001E002000000C503423F1A51123FF304ED
:10013300B53F0000803EFFFFFF0005030101FF52B2
:100143003D00000000263C00000000FF000000FF0F
:1001530000C082C083E9FA5407F8745A28F582E490
:100163003418F583E0F879006022EAC4540F54038D
:10017300600814600914600D8012E5808002E59028
:100183005870078007E5A0586002790102027DC01C
:1001930082C08312028240047800800312033AE88B
:1001A300F4FCEB600814601214601C802BEA6005F9
:1001B300E842808023EC5280801EEA6005E842908A
:1001C3008016EC52908011E8C39420500BEA60052E
:1001D300E842A08003EC52A002027DC082C08312D9
:1001E300028240047800800312033AE8F4FCE870CA
:1001F3000302027DEB600814602C146050807BECDA
:1002030052F374016A601274026A601574046A70AE
:1002130003E8428FE842FD806153F7DFEC528F80A1
:10022300F343F72080F6EC52F474016A601274020F
:100233006A601574046A7003E842F6E842FE803A85
:1002430053F7BFEC52F680F343F74080F6E8C394CC
:10025300205027EC52F574016A601274026A60152B
:1002630074046A7003E842F7E842FF800D53F77F96
:10027300EC52F780F343F78080F6D083D08222E9F3
:10028300C4540F5403FB743F59C394302274F812BF
:100293000ED0E9C4540F5403FE743F59C394304045
:1002A300047800800312033AE8F4FBE86077EE6019
:1002B3000814602B14604E806CEB52F352FD7401F2
:1002C3006A600F74026A600F74046A7058E8428FA0
:1002D300805353F7DF800343F720EB528F8046EBC5
:1002E30052F452FE74016A600F74026A600F740460
:1002F3006A7032E842F6802D53F7BF800343F7401C
:10030300EB52F68020E8C39420501AEB44E0FB52F2
:10031300F552FF74016A601274026A601574046A0C
:100323007003E842F77F0102126053F77FEB52F745
:1003330080F343F78080F6E95407FC745A2CF58266
:10034300E43418F583E0F822C082C08312028240AD
:10035300047800800312033AE8F4FCE86038EB60A9
:100363000814601214601C802DEA6005E842FD80C9
:1003730025EC52FD8020EA6005E842FE8018EC522D
:10038300FE8013E8C39420500DEA6005E842FF8025
:100393000574E04C52FF02027DC082C083120282C8
:1003A30040047800800312033AE8F4FCE8603FEB72
:1003B30060081460151460228034EA6005E8428006
:1003C3008003EC5280E842FD8024EA6005E8429015
:1003D3008003EC5290E842FE8014E8C39420500E50
:1003E300EA6005E842A08003EC52A0E842FF020263
:1003F3007D743F59C394305042E9C4540F54036091
:1004030007146013146020227801E8F4FBEA6024E7
:1004130014601814601922740F59C394045004789B
:100423000280E7780480E3780880DFE8428C22E5E5
:100433008C586004EB528C22E8428C2212180C6018
:100443001D12181B7005191919801A121675701FC1
:1004530012169DC37003E66733191919400718185C
:10046300182208080874FFF618F618F618F6221270
:10047300169D60171218C1702192F01218CA7019D4
:10048300501720F014080808090909E7F61819E7B6
:10049300F61819E7F61819E7F6221218CA60E6E803
:1004A30069701F0808E62480F608E436F618547FBE
:1004B300B47F0CE654806007F6E418F618F62218A9
:1004C3001822E9C6CC08C6CD08C6CE08C6CFC0E000
:1004D300E8C0E0EAC0E0EBC0E009E9F809E7FA099F
:1004E300E7FBE6F918E6F8C3EC98ED99EE9AEBC250
:1004F300E7F5F0EFC2E795F0500E600CEBCFFBEAA7
:10050300CEFAE9CDF9E8CCF8EAA2E7D2E7FAEB3381
:10051300FB13F5F0EEA2E7D2E7FEEF33FFC5F013CE
:10052300A2E730E601B313C5F0C3C0E0C0F07F001B
:10053300C39BFB605E9418600F401D14601AD0E0EB
:1005430023F9D0E0F80206208AF0E9486003D2F0EC
:10055300E4AFF0FAF9F8803BEB30E40D89F0EA60A0
:1005630003D2F0E4AFF0F9CAF8EB30E30D88F0EF13
:100573006002D2F0AFF0E4CAC9F8EB54076014FB91
:10058300C3EA13FAE913F9E813F8EF135002D2E0C0
:10059300FFDBEDD0E0C0E030E739C3E49FFFF5F0C7
:1005A300EC98FC42F0ED99FD42F0EE9AFE42F0D059
:1005B300E0F9D0E0F8E5F0607AE923F9EE20E742CC
:1005C300D8028067C3EF33FFEC33FCED33FDEE332A
:1005D300FE80EAEC28FCED39FDEE3AFED0E023F98B
:1005E300D0E0F84002801BC3EE13FEED13FDEC13C5
:1005F300FCEF135002D2E0FF08B800067F7F74FFC0
:10060300802EEF3350178CF020F00260100CBC00EA
:100613000C0DBD00080EBE000408E860DFE933E8F6
:1006230013FFEE2313FE4F4D4C8008E95480FFE483
:10063300FEFDFCEE33EF33F47004FCFD7E80D0E06E
:10064300FBD0E0FAD0E0F8D0E0CFC618CEC618CD84
:10065300C618CCC6F92212180C70041818182212E6
:10066300181B700D74FFF61819F61819F61819F6F9
:1006730022E7548066F61218CA700F1218C170F080
:1006830014F608F608F608F680D11218C1700CF6B5
:1006930008F608768008E6447F80EC1216A0700CFA
:1006A30012167860BFE65480F6E480BB12167870A9
:1006B3000519191980A5E869700C763F187680181A
:1006C300F618F6E8F922E6CDC0E018ECC0E0E63310
:1006D300CD33CDD313F6E719FCE7191933CC33C364
:1006E300947F400ECD9D502408E65480F6E418F61E
:1006F300800FF4043D14501408E6447FF618768006
:10070300E418F618F6D0E0FCD0E0FD22CCD313CCED
:10071300FD18E4C6CBC0E018E4C6CAC0E00808ED83
:1007230008C633E613F618E433C675F003C3CA9755
:10073300CA09CB97CB199C40047D08802EBD0003CA
:1007430002080216B6FF050606081618C3CA33CAFE
:10075300CB33CB33CA27CA09CB37CB193CC37D086C
:10076300803E187D0820E75CC633C6CA33CACB3344
:10077300CB33DDF1D5F0EB30E77BCA97CA09CB97D2
:100783004ACB199C406F4B7025E620E02180661808
:100793007D08C3CA97CA09CB97CB199CD3C633C666
:1007A300CA33CACB33CB3350C9DDE7D5F0E1D3E449
:1007B300C636C608C636C608C636C608C636C618FE
:1007C30018188031C3CA97CA09CB97CB199CB34079
:1007D30097C633C6CA33CACB33CB33DD34D5F02EF9
:1007E300C6A2E0C640C8CA27CA09CB37194A70BE99
:1007F300CB3CB480B90808E63308E633601F181809
:1008030018D0E0FAD0E0FBD0E0FCD0E0FD22187D68
:1008130008CA27CA09CB37CB193CD3808013F618F3
:10082300E4B67F11F618B6FF0EF618C60470D208A8
:1008330008768080CAF618F618F680C50012180CE0
:10084300604F12181B6012E7548066F6121675701B
:10085300111218C1703B090909F4F618F618F618B5
:10086300F62212169D70151218CA08080860EAE6E7
:10087300447FF618768018E4F618F6221218CA6038
:10088300161218C17012E4F608F608F608E654804A
:10089300F609090918181822EAC0E0EBC0E0ECC019
:1008A300E0EDC0E0E687F0A4FBACF008E687F0A437
:1008B3002CFCE435F0FA1809E687F0A42C4B60020F
:1008C3007401CA35F0FCE433FB09E687F0D2F7A4E0
:1008D3002CCB35F0FC1908E687F0A42BCC35F0FBC4
:1008E300E433FD0819E687F0D2E7A42C4ACB35F0B0
:1008F300CD3400FC09E687F0D2E7A42DCC35F0FD1A
:10090300E433FA0918E687F0D2F7A42CCD35F0CA00
:100913003400FC08E687F0D2E7D2F7A42ACC35F0FE
:100923007A7E20E70B0ACB33CBCD33CDCC33CC331C
:10093300CB3350147004ED30E00ED2F1E4CD3DCD55
:10094300CC3CCC3B5005DA05C2F1EB547FC63308EF
:10095300E63392F0FBE73309E733C39A502D2B704C
:10096300190C0D4C4D70151806E608C333700D2095
:10097300F10AA2F013F6E418800B4024E4F630F0F9
:1009830002768018F618F618F68024D33B1450101C
:1009930074FFA2F013F6187680E418F618F6800FA9
:1009A300A2F013F618E63303F618ECF618EDF6D0BA
:1009B300E0FDD0E0FCD0E0FBD0E0FA22C0E074F12F
:1009C300120F36A2AFE433F509D2AF85A708AFA162
:1009D300EF5508FE74105E6006121BBE75A1EF741E
:1009E300085E6008121BC475A1F78024EFA2E09291
:1009F300F0E508A2E082F05017906198E0F89005C6
:100A03006CE0C398A2D265D0335002E8F075A1FE22
:100A1300E509A2E092AF7F02020F95C0E074F212E3
:100A23000F36A2AFE433FED2AF9061A4E0F8759B1A
:100A330000E59158540860087591F7121C0C802347
:100A4300E59158541060087591EF121C128014E55B
:100A530091A2E092F0E8A2E082F05007E0C2E0F059
:100A6300121D5C9061A3E0F8E5E9585404600E128E
:100A73001D3275E9FB906193E0A2E640F2EEA2E03D
:100A830092AF7F01020F95C0E074F2120F36A2AF4E
:100A9300E433FED2AF9061A5E0F8E5BF585404609B
:100AA3000675BFFB121D7480D4C3E498F8E499F96A
:100AB300120AED8026C3E49AFAE49BFBE920E7E9F6
:100AC300120AEDE498F8E499F922C3E498F8E4995A
:100AD300F9120AEDE498F8E499F9C3E49AFAE49B6D
:100AE300FB22EB20E7CFE920E7E0B90010BB0008C9
:100AF300E88AF084F8AAF022E4FBC8FA22EB702219
:100B03007B10C833C8C933C9335007C39AC3DBF258
:100B130080069A50012ADBEAC833F4C8C933F4C902
:100B2300FA2275F008E4C833C8C933C933C99AC96E
:100B33009B5004C92AC93BD5F0ECFBC833F4C8E485
:100B4300C9FA22C0E0C0D0E8C0E0E9C0E0C082C07A
:100B530083A8C1E8C0E09004D9E0F8745828F5826E
:100B6300E43404F583D0E0F09004D8E0F8A3E0681F
:100B73007006E5959004DBF09004D9E004F0C3948B
:100B8300804002E4F0A374C6F0D083D082D0E0F9B1
:100B9300D0E0F8D0D0D0E032C0E0C0D0E8C0E0E987
:100BA300C0E0C082C08390055CE0F8A3E0687008F1
:100BB300539AFBA374018022C2E990055CE0F874A8
:100BC3000128F074DC28F582E43404F583E0F5C1F0
:100BD30090055CE0C394804002E4F080AC120C2BDF
:100BE30030F039120C708034120C2B20F01430E7E3
:100BF3002B74FFFCFBFA747F8022E4FCFBFA748005
:100C0300801AB48008BC00F2BB00EF800F50EBF9F0
:100C1300E4C39AFAE49BFBE49CFCE499C6CC18C6B3
:100C2300CB18C6CA18C6F922E4C9C608CAC608CB77
:100C3300C6D3330308CCC63392F0C3947F402E94BB
:100C4300184019C9B90704CACBCC225025C309CA15
:100C530033CACB33CBCC33CC33D9F422F4600DC9B4
:100C6300CCC313CB13CBCA13CAD9F6CC22E4FCFBF7
:100C7300FA2214FCFBFA22C0E074F2120F36A2AF80
:100C8300E433FED2AF900710E05589600FE589FA8F
:100C93007900122032900710E0F45289C2C5EEA207
:100CA300E092AF7F01020F95C0E074F2120F36A2FB
:100CB300AFE433FED2AF900711E0558A600FE58AA7
:100CC300FA7901122032900711E0F4528AC2EB80C4
:100CD300CDC0E074F2120F36A2AFE433FED2AF9070
:100CE3000712E0558B600FE58BFA790212203290E0
:100CF3000712E0F4528BC2E880A4080808EAC0E0B7
:100D0300EBC0E086F0E7A4FA180986F0E7A42AFA14
:100D1300180986F0E7A42AFA180986F0E7A42AFA44
:100D23001986F0E7A4FBE5F02AFA190886F0E7A490
:100D33002BFBE5F03AFA190886F0E7A42BFBE5F064
:100D43003AFA18180986F0E7A4C5F02BFBE43AFA3F
:100D53001908E7C5F0C6A426F6E5F03BFBE43AFA2A
:100D63001886F0E7A4F6E5F00826F6E43B08F6E477
:100D73003A08F6D0E0FBD0E0FA22080808E630E7AC
:100D8300111216D9120D95080808C64480C6181802
:100D93001822181818E9799EC608CAC608CBC608CF
:100DA300CCC6C370207996CACBCC7019798ECBCCC4
:100DB30070137986CC700EF9802ACA33CACB33CB31
:100DC300CC33CC331930E7F2CCCBCA335014700494
:100DD300EA30E00DE4CA3ACACB3BCBCC3CCC500260
:100DE30009C3E913C6CC182313C6CB18C6CA18C641
:100DF300F922E4CFC0E0E4CEC0E0E4CDC0E0E4CC2F
:100E0300C0E075F020E626F608E633F608E633F68A
:100E130008E633F6181818EC33FCED33FDEE33FE19
:100E2300EF33FFC3EC9709ED9709EE9709EF971995
:100E33001919400FFFEC97FC09ED97FD09EE97FE9A
:100E4300191906D5F0BFECF709EDF709EEF709EF2D
:100E5300F7191919D0E0FCD0E0FDD0E0FED0E0FF97
:100E6300222518C582C0E0E51934FFC583C0E0E53B
:100E730018C3958224F810AF0885831985821880DA
:100E830008858319858218D2AFCEF0A3E520F0A39D
:100E93007808E608F0A3DEFAEFF0A3E58124FAF878
:100EA300E608F0A3E608F0A3E608F0A30808E608BE
:100EB300F0A3E608F0A315811581D0E0FED0E0F899
:100EC300158115811581E8C0E0EEC0E0222518C523
:100ED30082C0E0E51934FFC583C0E0E518C39582FD
:100EE30024F910AF08858319858218800885831932
:100EF300858218D2AFCEF0A3E520F0A37808E608E8
:100F0300F0A3DEFAEFF0A3E58124FBF8E608F0A3F3
:100F1300E608F0A30808E608F0A3E608F0A31581A5
:100F23001581D0E0FED0E0F815811581E8C0E0EE30
:100F3300C0E022C0D02518C582C0E0E51934FFC542
:100F430083C0E0E518C3958224F310AF08858319A5
:100F53008582188008858319858218D2AFC8F0A3CB
:100F6300E9F0A3EAF0A3EBF0A37908E709F0A3D82B
:100F7300FAECF0A3EDF0A3EEF0A3EFF0A3D0E0F0D2
:100F8300A3D0E0F0A3D0E0F0A3E520F0A3E5F0F0D8
:100F9300A322851983851882E0C0E0A3E0F9A3E0CA
:100FA300FAA3E0FBA37808E0F608A3DFFAE0FCA3CA
:100FB300E0FDA3E0FEA3E0FFA3E0C0E0A3E0C0E008
:100FC300A3E0F5D0A3E0F520A3E0A3F5F010AF086C
:100FD3008583198582188008858319858218D2AF85
:100FE300D082D083D0E0F8D0E0321216DC18181883
:100FF300120DF51217AB191919221217AB1919197A
:10100300080808E618181820E7E0120DF51216DC98
:1010130018181822090909E719191920E7DC080823
:1010230008E618181820E703020DF51216DC181845
:1010330018120DF51216DC1818181217AB19191916
:10104300221218ACB90003021083E4900401782F34
:1010530079158002F0A3D8FCD9FA7A2F7B18900077
:101063008678CF79018015E493A3AD82AE838A821B
:101073008B83F0A3AA82AB838D828E83D8E9D9E7D1
:1010830075827F75838B740712150475822A7583A5
:10109300377400121504E4730C75F0108E1A8F1B4D
:1010A30085821F85831E851882851983E0CEA3E080
:1010B300CF851F82851E83EBC9EAC8EDCBECCAC37B
:1010C300E833C8E933C9EA33CAEB33CBC3EA9EF545
:1010D3001DEB9FF51CB35004AB1CAA1DEC33CCEDE8
:1010E30033CDD5F0DAAE1AAF1B2212180C601C12E6
:1010F300181B60171218CA70071218C17001D32287
:10110300C0D01218C17006D0D0B322C32233D0D0BE
:10111300501430E0F6C3E7960809E7960809E79606
:101123000809E796B32220E0D5E6970809E6970871
:1011330009E6970809E697B322D083D082ECC0E092
:10114300EDC0E0E493A3FCE493A3FDED4C600D122A
:1011530012A0EC24FFFCED34FFFD80EFE493A3FC2D
:10116300E493A3FDED4C600D1213A7EC24FFFCEDFB
:1011730034FFFD80EFD0E0FDD0E0FCE493A3C0E0BA
:10118300E493C0E02212180C601B12181B601612A5
:1011930018CA70071218C1600CB322C0D01218C14C
:1011A3007005D0D022C32233D0D0501330E0EBC32C
:1011B300E7960809E7960809E7960809E7962220C3
:1011C300E0E4E6970809E6970809E6970809E69731
:1011D30022D083D082E9C0E0E493A3C386F0C5F0B4
:1011E30095F0F908E493A386F0C5F095F0700BE44D
:1011F30093A3C3994005E9048002A3E475F002A414
:101203002582F582E5F03583F583D0E0F9E493A3F5
:10121300C0E0E493C0E022851983851882E0A3FE31
:10122300E0A3F5207808E0A3F608DFFAE0A3FFE0E7
:10123300A3C0E0E0A3C0E0E0A3C0E0E0A3C0E0E01F
:10124300A3C0E010AF0885821885831980088582C2
:1012530018858319D2AFD083D08202150A851983EA
:10126300851882E0A3FEE0A3F5207808E0A3F60842
:10127300DFFAE0A3FFE0A3C0E0E0A3C0E0E0A3C087
:10128300E0E0A3C0E010AF088582188583198008C9
:10129300858218858319D2AFD083D08222C0E0C360
:1012A300E49396087401939618400FE493667008CC
:1012B30008740193661870007019A3A3C3E493968E
:1012C300087401939618A3A3400DD0E0D0E0D0E0BA
:1012D300021178A3A3A3A3A3A3D0E022C0E074F2D6
:1012E300120F36C2D9901877E0C39400A2D265D00A
:1012F300334005E0F91224107F01020F95C0E0741A
:10130300F2120F36C2DC901879E0F9C39400A2D22E
:1013130065D033400312241080DE74048004740209
:101323008000CCC0E0EDC0E0E518C39CCCAD195003
:10133300011D10AF068C188D1980068C188D19D2DB
:10134300AF121466D0E0FDD0E0FC2274028000CC22
:10135300C0E0EDC0E0E518C39CCCAD1950011D10F1
:10136300AF068C188D1980068C188D19D2AF121404
:1013730022D0E0FDD0E0FC2212180C602512181BCD
:1013830060201218CA70030218C1080808E76670C3
:10139300101819E766700A1819E76670041819E738
:1013A3006622F422C0E0C0F088F0E4936670080877
:1013B30074019366187000A8F0A3A3700BD0F0D04B
:1013C300E0D0E0D0E0021178A3A3D0F0D0E022D0A7
:1013D30083D082CCC0E0E493A360061214E51470BA
:1013E300FAE493A3600612160A1470FAD0E0FCE440
:1013F30093A3C0E0E493C0E022C008C3E096F508DD
:1014030008A3E096420808A3E096420808A3E096E2
:101413004208A2D265D033E5087001D3D00822CAAE
:10142300C0E0E493A3C582CCC582C583CDC583F058
:10143300A3C582CCC582C583CDC583DAE5D0E0CA16
:1014430022A2E792D65002F40430F70663F0FF05B8
:10145300F0B3400384800384F40430D60563F0FFC3
:1014630005F022CAC0E0E0A3C582CCC582C583CD06
:10147300C583F0A3C582CCC582C583CDC583DAE617
:10148300D0E0CA22C0E0C0D0C082C08375AF009054
:10149300074FE02401F0A3E03400F0D083D082D0E2
:1014A300D0D0E0327009080808226016181818C650
:1014B300C333C608C633C608C633C608C633C6D543
:1014C300E0EA22C008C3E096F50808A3E0964208C4
:1014D30008A3E096420808A3E09645087001D3D01C
:1014E3000822C0E0E493A3D39C5010E493A3C39CCD
:1014F300400AD0E0D0E0D0E00213EFA3A3A3D0E0F2
:1015030022C09FF59FE473D09F22D083D082C09FD7
:10151300E493C0E0740193C0E0740293F59F2274D6
:1015230004800A74038006740280027401C0E0F42C
:101533000412153DD0E0121857222518F58210AF7A
:1015430008F518400C15198008F51840021519D232
:10155300AF8519832200C0D0251810AF08F51850A5
:101563000C05198008F51850020519D2AFD0D02206
:10157300C0E0C0D0E8C0E0A8A8D2AFC2C7E8A2E7E5
:1015830092AFD0E0F8D0D0D0E032BB0102E722C066
:1015930082C08389828A83BB0003E08002E493D004
:1015A30083D082226017080808C6A2E713C618C6AC
:1015B30013C618C613C618C613C6D5E0E9226016AB
:1015C300080808C6C313C618C613C618C613C61818
:1015D300C613C6D5E0EA222518F8E43519F9222501
:1015E30018FAE43519FB222518FCE43519FD22C34A
:1015F300E0C696F608A3E0C696F608A3E0C696F6FC
:1016030008A3E0C696F622C0E0E493A36C7009D069
:10161300E0D0E0D0E00213EFA3A3D0E0222518101E
:10162300AF08F518400C15198008F5184002151974
:10163300D2AF22C3E09608A3E09608A3E09608A3DE
:10164300E096A2D265D03322E76670100809E766F8
:10165300700A0809E76670040809E76622E0667005
:101663001008A3E066700A08A3E066700408A3E00C
:101673006622181818E60846087009E62608700559
:10168300E633F4220822C3E4939608740193960880
:1016930074029396087403939622191919E709475C
:1016A300097009E727097005E733F4220922C3E02B
:1016B30096F008A3E096F008A3E096F008A3E0965E
:1016C300F022C3E697F60809E697F60809E697F6C7
:1016D3000809E697F622181818E4C396F608E49664
:1016E300F608E496F608E496F622E026F608A3E068
:1016F30036F608A3E036F608A3E036F622E627F628
:101703000809E637F60809E637F60809E637F62248
:10171300E493F608740193F608740293F6087403CD
:1017230093F622E657F60809E657F60809E657F650
:101733000809E657F622E056F608A3E056F608A392
:10174300E056F608A3E056F622E647F60809E64710
:10175300F60809E647F60809E647F6227004226010
:101763000D18C6C333C608C633C6D5E0F41822E63F
:1017730067F60809E667F60809E667F60809E66703
:10178300F622E026F008A3E036F008A3E036F008DE
:10179300A3E036F022E056F008A3E056F008A3E0F9
:1017A30056F008A3E056F022E4C397F709E497F74D
:1017B30009E497F709E497F722600D08C6A2E71337
:1017C300C618C613C6D5E0F322C6F4C608C6F4C6C7
:1017D30008C6F4C608C6F4C622C3E09608A3E0967A
:1017E30008A3E09608A3E09622C3E7960809E796C4
:1017F3000809E7960809E7962275D00075813F75B9
:10180300180175190400021044E6084608C313467C
:1018130008336002E633F422E7094709C313470993
:10182300336002E733F422600C08C6C313C618C63C
:1018330013C6D5E0F422E6F008A3E6F008A3E6F029
:1018430008A3E6F022E0F608A3E0F608A3E0F60812
:10185300A3E0F622CAC0E0E6F0A308DAFAD0E0FA81
:1018630022E0FCA3E0FDA3E0FEA3E0FF22EAF0A355
:10187300EBF0A3ECF0A3EDF022E0FAA3E0FBA3E08E
:10188300FCA3E0FD22E8F0A3E9F0A3EAF0A3EBF068
:1018930022ECF0A3EDF0A3EEF0A3EFF022E0F8A327
:1018A300E0F9A3E0FAA3E0FB22E5C754F84401F50D
:1018B300C77901222518F582E43519F58322E72734
:1018C30019471947194722E626184618461846228B
:1018D300C2AF75D69F0200002212150D15C1051265
:1018E300150D7BC20512150DCAFF0512150DE794E0
:1018F3000512150D39950512150D95950512150D42
:1019030023960512150D7F960512150DB99905122B
:10191300150DE79B0512150D0F9D0512150D77F695
:101923000612150DE1F60612150D02F70612150D36
:1019330040F70612150D85F70612150DABF70612C3
:10194300150DB4F70612150D62F80612150DC6F83B
:101953000612150D407F0012150D2FA70712150D46
:101963004AA70712150DCDC70412150DACC80412F2
:10197300150DACC90412150D80CA0412150D62CDE4
:101983000412150DF5CE0412150DADCF0412150D6D
:10199300BED00412150D49D20412150D4FE70512DE
:1019A300150D5DE70512150D6EE80512150D1EE9FF
:1019B3000512150DA6EA0512150D66ED0512150D96
:1019C300B9F00612150D43F10612150D4EF206126B
:1019D300150D6AF20612150D779E0712150D889ED6
:1019E3000712150D4D9F0712150D5C9F0712150D5C
:1019F300679F0712150DF77F0012150DEDFF0412F7
:101A0300150DB7A20712150DC7A20712150DDCA2FB
:101A13000712150D42A30712150D7F9F0712150D0F
:101A230002A00712150D68A00712150D7F89071272
:101A3300150DBA890712150D168A0712150D6E8A30
:101A43000712150DF58A0712150D318B0712150DA7
:101A530059A80712150D69A80712150D35E00612CE
:101A6300150D98E00612150DE7E00612150D14E1A9
:101A73000612150D6AE10612150D71A70712150D51
:101A830095820712150DDF820712150D7583071254
:101A9300150DFB830712150D2C840712150D4484B5
:101AA3000712150DB8840712150DCE840712150DF4
:101AB300E1840712150DEB840712150D5FD3041291
:101AC300150DABD80412150DDDD80412150D09D967
:101AD3000412150DB1D90412150DA7DC0412150D4E
:101AE300DAF30412150D46F40412150DF6F404127C
:101AF300150DC1F50412150D17F70412150D05F890
:101B03000412150D0CF90412150DECFA0412150D3F
:101B13001FFB0412150D89FB0412150DB0FB0412F3
:101B2300150D16FD0412150D88FD0412150DBDFDCE
:101B33000412150DD1FD0412150D47FE0412150DE7
:101B4300F7A70512150D9DAA0512150D05AC051273
:101B5300150D8CAE0512150D5DB80612150D89B85D
:101B63000612150DFABA0612150D3ABB0612150D1B
:101B73007ABB0612150D8EBB0612150DA7BB0612F6
:101B8300150D98BC0612150D3DBD0612150D51BD60
:101B93000612150D23970712150D47970712150DFA
:101BA30060970712150D92970712150DC29707122A
:101BB300150DEF970712150D51980712150D609823
:101BC3000712150D6A980712150D77980712150D50
:101BD30016FC0612150D36FC0612150D75FC0612C1
:101BE300150D90FC0612150DAFFC0612150D15FD13
:101BF3000612150D1EFD0612150D7BFD0612150DA1
:101C03009FFD0612150D60FE0612150D6DFE0612E0
:101C1300150D7EFE0612150D1AA60712150D32A616
:101C23000712150D5EA60712150D70C20612150DCB
:101C3300CAC30612150DD8C30612150DEBC306123F
:101C4300150D00C40612150D15C40612150D28C472
:101C53000612150D9CC40612150D01C50612150DAD
:101C6300A3C50612150D67C60612150D77C6061213
:101C7300150D86C60612150D88A10712150DACA108
:101C83000712150DD4A10712150DFCA10712150D8E
:101C93005C870712150D83870712150DA18707129D
:101CA300150D14880712150D43F90612150D5CF96D
:101CB3000612150D68F90612150D7CF90612150D9D
:101CC3009AF90612150DA4F90612150DAEF90612AE
:101CD300150DC1F90612150D47FA0612150DBCFABA
:101CE3000612150DEBFA0612150D39FB0612150D2A
:101CF30088FB0612150DA3FB0612150DADFB06128C
:101D0300150DBEFB0612150D01FC0612150D7FA560
:101D13000712150D69B10512150D93B10512150DB5
:101D2300B0B10512150DC3B10512150DD9B10512C8
:101D3300150D37B20512150D6FB20512150D63B6E9
:101D43000512150DA8B70512150DDBB70512150DF4
:101D53003EB80512150D9EB90512150DC6B905122B
:101D6300150DDBB90512150DEBB90512150D2FBABB
:101D73000512150D8ABA0512150D9ABA0512150D1D
:101D83001D9B0712150D379B0712150D5F9B07123D
:101D9300150D789B0712150D9C9B0712150DBA9B09
:101DA3000712150DD19B0712150DFF9B0712150D79
:101DB3001A9C0712150DEBA60712150D43FC05120D
:101DC300150D53FC0512150D58FD0512150D8AFD51
:101DD3000512150DB0FD0512150DD3FD0512150DD8
:101DE300EAFD0512150D24FE0512150D89FE0512D7
:101DF300150DCBFE0512150D0AFF0512150D3BFF40
:101E03000512150D72FF0512150D87F50512150D37
:101E13005DF60512150D88F60512150DA5F60512CA
:101E2300150DA0F70512150DE2F70512150D50F863
:101E33000512150DA2F80512150D11F90512150D50
:101E430048FA0512150D45FB0512150D07D80612A4
:101E5300150D5CD80612150DDCD80612150DEFD83A
:101E63000612150D16D90612150DB9D90612150D40
:101E73009ADA0612150D0BD60512150D36D6051274
:101E8300150D01D70512150D48D70512150DD9D714
:101E93000512150D52DB0512150D0ADD0512150D80
:101EA3000D9A0312150D4D9A0312150D4C9C031236
:101EB300150D729C0312150D5D9F0312150D99A04C
:101EC3000312150D03A40312150D6DA40312150DB2
:101ED30007A50312150D5AA50312150DC2A503126A
:101EE300150D12A60312150D44A60312150D47A6D0
:101EF3000312150D57A60312150D69A60312150D2E
:101F0300B4A60312150D71A80312150DDEA8031252
:101F1300150D31A90312150DCDA90312150D59AADB
:101F23000312150D5DAC0312150DFCAD0312150D57
:101F3300C3AF0312150DA7B00312150D5BB2031245
:101F4300150D4C940712150D66940712150DA894E0
:101F53000712150DDB940712150DF5940712150DD5
:101F63000E950712150D50950712150D859507123D
:101F7300150D62920612150D93920612150DE79236
:101F83000612150DB7930612150DE9930612150DDA
:101F930016940612150D67940612150D91940612E8
:101FA300150DB5940612150DDB940612150D5D95EE
:101FB3000612150DE7950612150D18960612150D46
:101FC3005E960612150D7C960612150DA096061246
:101FD300150DC0960612150DF6960612150D55979A
:101FE3000612150D77970612150DD6970612150DC5
:101FF300E5970612150D1E980612150D1ACD05123A
:10200300150D54CD0512150D93CE0512150DBFCF29
:102013000512150DE4D50512150D2D980612150D93
:1020230034990612150D75990612150DE9990612C4
:10203300150D6D9D0712150DDE9D0712150D439E9F
:102043000712150D808A0512150D9F8B0512150DAC
:10205300AD8C0512150DF48D0512150D4C8E051260
:10206300150D918E0512150D9F8E0512150DCF8E30
:102073000512150D658F0512150DC1900512150D6D
:10208300CD910512150D65930512150DDC940512FE
:10209300150D65E70612150DC0E70612150DF9E7D4
:1020A3000612150DE1E90612150D40B30612150DC2
:1020B30085B30612150DBBB30612150DE2B4061255
:1020C300150D87B60612150DF4B60612150D3FB899
:1020D3000612150DEBF50312150D08F70312150D76
:1020E3007EF70312150D77F80312150DC3F80312CB
:1020F300150D3EFC0312150D1EFD0312150D60FD9B
:102103000312150DA1FD0312150DF6FD0312150D96
:10211300D6FE0312150DBF950712150DFC95071278
:10212300150D2B960712150D3F960712150DA2FBE1
:102133000112150DB4FC0112150D97FD0112150DB9
:10214300B8FD0112150D81FE0112150D23FF0112B9
:10215300150D54FF0112150DD4FF0112150D00804A
:102163000612150D62800612150DF6800612150D66
:1021730085820612150DC6850612150DDC8506121D
:10218300150D81980712150D93980712150DA79930
:102193000712150DAA990712150DD7990712150DD8
:1021A3000D9A0712150D279A0712150D699A071232
:1021B300150D799A0712150D139B0712150D8CEE49
:1021C3000512150D96EE0512150DD0EE0512150D1F
:1021D30039EF0512150D56EF0512150DF8EF05121F
:1021E300150D01F00512150D46F00512150D6FF0D2
:1021F3000512150D7CF00512150DEDF00512150DE8
:1022030078F10512150DC6F10512150D04F205122C
:10221300150D69F20512150D8CF20512150D03F358
:102223000512150D5AF30512150D95F30512150D2B
:10223300CAF30512150DDCF30512150DEEF30512A5
:10224300150D0DF40512150D16F40512150DD1F427
:102253000512150D1DF50512150D5BF50512150D6E
:1022630065BD0612150DA5BE0612150DC8BE0612D4
:10227300150DD9BE0612150DD8C00612150DF8C0DE
:102283000612150D28A80712150DAFED0612150D30
:10229300F3ED0612150D3BEE0612150D21F0061295
:1022A300150DB0F00612150D4AA40712150D008086
:1022B3000412150D24810412150D5E810412150DEF
:1022C30008830412150D32830412150DA785041219
:1022D300150DE7850412150D7D870412150D1A8857
:1022E3000412150D6C880412150D0F890412150DB7
:1022F30047890412150D89890412150DF88A0412F1
:10230300150D468C0412150D778E0412150DA58E2E
:102313000412150DCC8E0412150DD58E0412150D55
:10232300258F0412150DB78F0412150DE6920412B2
:10233300150D69930412150D43A80712150D31DC11
:102343000612150D47DC0612150DEBDC0612150DF2
:102353002ADD0612150D47DD0612150D78DD06126E
:10236300150DC5DD0612150DF8DD0612150D33DE4C
:102373000612150D28E00612150D9E860612150D80
:1023830044880612150D85890612150D9D890612BE
:10239300150D2DCB0612150D64CC0612150DC3CDEC
:1023A3000612150DFAC30512150D26C40512150DD7
:1023B30060C40512150D26C70512150D7EC705123B
:1023C300150DC8C70512150DECC70512150D69C902
:1023D3000512150DC6C90512150D23CC0512150DD1
:1023E300CDDE0512150DF4DF0512150DF3E0051210
:1023F300150D49E20512150D6EE30512150D48E49E
:102403000512150D5F8D0712150D0D8E0712150D93
:10241300A26D0012150D676E0012150D726E00127B
:10242300150D236F0012150D826F0012150D7971B2
:102433000012150DE9710012150DEE730012150D42
:1024430027740012150DD0760012150DF8760012C0
:10245300150D7A770012150DF5770012150D7F799A
:102463000012150DD4790012150D527A0012150DB4
:102473001E7F0012150D7BA30612150DA2A30612D3
:10248300150DFDA50612150D24A60612150D79A628
:102493000612150DABA70612150D27A80612150D6A
:1024A30000800712150D18800712150D638107129E
:1024B300150D6A810712150D93810712150D81A061
:1024C3000712150DE0A00712150D1EA10712150D19
:1024D3005FA10712150DEFA80612150D15A9061217
:1024E300150D55AA0612150D4AAB0612150D71AB43
:1024F3000612150D0AAC0612150D5EAC0612150D6B
:1025030079AD0612150D818C0612150D238D061259
:10251300150D438E0612150D958F0612150D499153
:102523000612150D5ADE0412150DAEDE0412150D3A
:10253300D8DF0412150D04E10412150DF2E10412A3
:10254300150D8EE40412150D45E60412150D90E6E3
:102553000412150D9EE80412150D3AFC0212150D16
:102563008DFC0212150D10FD0212150D9CFF0212B7
:10257300150DACFE0612150D26FF0612150D41FFB3
:102583000612150D3A8F0712150D4F900712150DF0
:10259300B7900712150D0E910712150D59910712D9
:1025A300150DA9910712150DC4910712150DC592AA
:1025B3000712150D20930712150D1C940712150D04
:1025C300FE840712150D67850712150DDD850712A9
:1025D300150D05860712150DB6930412150D2794D4
:1025E3000412150D8E940412150D12950412150D77
:1025F3000D960412150D3C980412150D2B99041217
:10260300150D96990412150DD4990412150D1A9BE4
:102613000412150DD19B0412150D1A9C0412150DED
:10262300849C0412150DD59C0412150D659E04128D
:10263300150D9F9E0412150DD3A30712150D1DA48E
:102643000712150DD99D0612150D369E0612150D8E
:102653000E9F0612150D7D9F0612150DA19F0612E2
:10266300150D88A00612150DE8A00612150D99A1E7
:102673000612150D10A20612150DA9A70712150DA6
:10268300BCA70712150D4D9C0712150D5C9C071274
:10269300150DBC9C0712150DCDA70712150DD3A759
:1026A3000712150DD9A70712150D29BC0412150D14
:1026B30094BC0412150D6DBD0412150DC8BE041291
:1026C300150D37BF0412150DE5BF0412150DBEC05D
:1026D3000412150DADC10412150D00C30412150D1E
:1026E30077C50412150DED3F0012150DF93F0012C9
:1026F300150D2CBA0312150D65400012150DF84087
:102703000012150D34410012150DF0410012150D84
:1027130003420012150D53420012150DE24200123E
:10272300150D18430012150D9A430012150D494556
:102733000012150D1D470012150D03480012150D4B
:1027430055490012150DAB4B0012150D144D001217
:10275300150DB14D0012150D59520012150D4753A9
:102763000012150DE5530012150D11540012150D2D
:10277300AD540012150DC2540012150DE65400128B
:10278300150D4C550012150DABC00512150D9355C3
:102793000012150D10570012150D31570012150DAB
:1027A300B7570012150D5D580012150DA4580012ED
:1027B300150D17590012150DA3590012150D075ABF
:1027C3000012150D675A0012150DFD5A0012150D52
:1027D300785B0012150DAB5B0012150D0D5C00123A
:1027E300150D6F5D0012150DDF5D0012150D8E5E68
:1027F3000012150DE45F0012150D7C600012150D1B
:10280300E8600012150D2B630012150DB76400125A
:10281300150DE2640012150DC8660012150D5E68F1
:102823000012150D67690012150DC0A10412150DD4
:1028330077A20412150D7EA30412150DFCA3041236
:10284300150D3EA50412150D5FA50412150D17A64F
:102853000412150DC2A60412150DA2AA0412150D19
:10286300BEAC0412150D25AE0412150DA7A6071252
:10287300150D00800312150D58800312150DDE800F
:102883000312150DF0810312150D3D820312150D70
:1028930023830312150D3A830312150D8C83031240
:1028A300150DC4830312150DD7830312150D2D8443
:1028B3000312150D86840312150D9E840312150D44
:1028C3000E870312150DA5870312150DCF8703126B
:1028D300150D07880312150D2D8A0312150D738A22
:1028E3000312150DBD8A0312150D918B0312150DDD
:1028F300D28B0312150DF58B0312150D3C8C0312AD
:10290300150D5E8C0312150DDF8C0312150D6C8DE6
:102913000312150DC68D0312150D0E8E0312150D20
:10292300838F0312150DFF910312150D8C92031261
:10293300150DB8930312150DF3930312150DC094DF
:102943000312150D00950312150D03950312150DB2
:102953000D950312150D20950312150DA195031264
:10296300150DD7950312150D03960312150D2A960F
:102973000312150D4E960312150DE5960312150D50
:10298300FE960312150D31970312150D519703127D
:10299300150D8E970312150DC5970312150DC498C7
:1029A3000312150DF7990312150D4CA30712150DFC
:1029B30058A30712150D9EA30712150DFA7F0012D7
:1029C300150D38CC0312150D5BCC0312150D32CD4A
:1029D3000312150D7BCD0312150DD3CD0312150D67
:1029E3002DCE0312150D79CE0312150DEFCE031262
:1029F300150D7DCF0312150DF5CF0312150D38D02C
:102A03000312150D15D40312150D5CD60312150D03
:102A13008FD60312150D0DD70312150D92D703127E
:102A2300150D6AD80312150D94D90312150D7FDA0B
:102A33000312150D5CDB0312150D98DC0312150D43
:102A43003CDE0312150DCEDE0312150DD5E0031285
:102A5300150DABEC0212150D4BED0212150DB5ED74
:102A63000212150D5CEE0212150DC0EE0212150DC9
:102A7300F3EF0212150D19F10212150D92F1021264
:102A8300150D6AF30212150D0AF40212150DADF4B9
:102A93000212150D0CF50212150DC7F50212150DD4
:102AA3008DF70212150D30F90212150DDCF9021221
:102AB300150DF1FA0212150D65E10312150DDDE195
:102AC3000312150D25E20312150D69E20312150D0C
:102AD300B2E20312150DFCE20312150D31E30312EA
:102AE300150DAFE30312150D09E40312150D62E58D
:102AF3000312150DEBE50312150D47E60312150D31
:102B030061E60312150D88E60312150DE0E60312C4
:102B1300150D4AE80312150D69E80312150D91E925
:102B23000312150D0EEA0312150D7BEA0312150DA0
:102B3300DDEA0312150D8DEB0312150D5FED031284
:102B4300150D4AEE0312150D44EF0312150D4AF04D
:102B53000312150D66F10312150D74F10312150D11
:102B63004DF20312150DEDF20312150D31F303129D
:102B7300150D46F30312150D57F40312150DFAF450
:102B83000312150D52F50312150DA9F30612150DB7
:102B9300E2F40612150D9FF50612150D03F6061243
:102BA300150D8BEA0612150DA6EA0612150DEAEAB3
:102BB3000612150D10EB0612150D36EB0612150D48
:102BC3004EEB0612150DB1EB0612150DC6EB0612F0
:102BD300150DE8EC0612150DF1EC0612150DFAECC5
:102BE3000612150D03ED0612150D0DED0612150D4A
:102BF30085CF0612150D65D30612150D6AD306127D
:102C0300150D6CD30612150DEC8B0712150D0AA8C2
:102C13000712150DBCA40712150D61A60712150D99
:102C2300D3FF0212150DD3D30612150D21A20712DD
:102C3300150D4BA20712150D61FE0412150DD6FFDB
:102C43000312150DECA70712150D1DA50712150D7F
:102C5300CAA50712150D2AE40612150DB3D70112E2
:102C6300150D0AD80112150D76D80112150D02D9CA
:102C73000112150DB8D90112150D00DA0112150D47
:102C830019DA0112150D3CDA0112150D5EDA011283
:102C9300150D9CDA0112150DEBDA0112150D16DB79
:102CA3000112150D74DB0112150D1BDC0112150D3C
:102CB300C3DC0112150D3FDD0112150D0CDE0112EF
:102CC300150D58DE0112150DE0DE0112150D19DF89
:102CD3000112150DAADF0112150DBBDF0112150D2F
:102CE3002DE00112150DC6E00112150D30E10112A0
:102CF300150D20E20112150D45E20112150D42E3F7
:102D03000112150D4FE30112150D58E30112150DB4
:102D130041E50112150D5DE60112150DEEE60112F6
:102D2300150D5FE70112150D39E90112150D04EDBB
:102D33000112150D18ED0112150D28ED0112150DD7
:102D430032ED0112150D3BED0112150D44ED01128B
:102D5300150D4EED0112150D7DED0112150DABEDA7
:102D63000112150DB6ED0112150DDAED0112150D57
:102D7300FEED0112150D70EE0112150DB9EE0112E3
:102D8300150DD5EE0112150D46EF0112150D92EF3B
:102D93000112150DDBEF0112150D19F00112150DBE
:102DA3009AF00112150D65F20112150D04F30112CB
:102DB300150DCCF30112150D58F60112150DADF6D4
:102DC3000112150DD5F60112150D08F80112150D96
:102DD3004DF80112150DA2F80112150D50F901124B
:102DE300150DF5F90112150D2AFA0112150DCAFA7E
:102DF3000112150D46FB0112150D8A860112150DE0
:102E0300BC860112150DF0860112150DA48801125E
:102E1300150D78890112150DD7890112150DED8A4B
:102E23000112150D398B0112150DD68D0112150DD9
:102E33004B900112150D97910112150D2F9201124E
:102E4300150D3B920112150D84920112150DB792C7
:102E53000112150D43930112150D55940112150D11
:102E630096950112150D95960112150DBF96011237
:102E7300150D2A970112150D83970112150DF6975B
:102E83000112150D2C9A0112150DB29B0112150D8D
:102E93009D9C0112150DEB9D0112150D23A001122E
:102EA300150D1AA30112150D29A30112150DBDA3AA
:102EB3000112150D68A40112150DABA40112150D15
:102EC300F4A40112150D44A50112150DB1A50112AB
:102ED300150D1DA60112150D39A60112150D68A6B3
:102EE3000112150DA7A60112150D8FA70112150DBD
:102EF3003EA80112150DB5AA0112150DE7AB01127B
:102F0300150DB6AC0112150D38AD0112150D84B1B6
:102F13000112150DB3B10112150D0EB20112150DEB
:102F230041B20112150D9CB20112150DB8B2011276
:102F3300150D19B30112150D69B30112150D18B44E
:102F43000112150DDBB40112150DA3B50112150DF8
:102F5300EFB70112150D7BB90112150DD2BA01128B
:102F6300150DEEBB0112150DF1BB0112150D20BCA1
:102F73000112150D0FBE0112150DD8BE0112150D4C
:102F830019BF0112150D6FC00112150DE5C0011215
:102F9300150D18C10112150D7CC10112150D9DC32C
:102FA3000112150DFCC30112150DD2C40112150D2A
:102FB300E6C40112150DFAC40112150D27C501123D
:102FC300150D57C50112150DFBC60112150DF8C7D6
:102FD3000112150D46C80112150D6DC80112150D0C
:102FE30048C90112150DEEC90112150D74CB01125A
:102FF300150DBBCB0112150D28CC0112150D7DCD7E
:103003000112150D26CE0112150D5ACE0112150D02
:1030130072CE0112150D15CF0112150D91D10112AA
:10302300150D39D30112150D5DD30112150D7BD387
:103033000112150D47D40112150D95D70112150D67
:1030430000800212150D32800212150DB284021295
:10305300150D01850212150D47850212150DEA851E
:103063000212150D4F860212150D93860212150DCD
:10307300FA870212150D26890212150D238D0212ED
:10308300150DA28D0212150DC88E0212150D2B8F70
:103093000212150D77900212150D0F930212150DE2
:1030A3009C930212150DA6930212150DCE930212D4
:1030B300150D96940212150D2B950212150D5495AC
:1030C3000212150D81950212150DD6970212150DD8
:1030D300A3980212150DE2980212150D64990212BB
:1030E300150D0F9A0212150D419A0212150D8C9AA5
:1030F3000212150DC59A0212150D149B0212150D1D
:10310300709B0212150DF29B0212150D579C0212B1
:10311300150DCF9C0212150D789E0212150D709F8E
:103123000212150DB1A00212150D05A40212150D00
:1031330061A60212150D1AA70212150D62A702123B
:10314300150D43A90212150D7EA90212150D87A9AB
:103153000212150D90A90212150D9BA90212150D4D
:10316300BAA90212150D6DAA0212150DCAAA0212EE
:10317300150DD4AA0212150DDEAA0212150D2AABE3
:103183000212150D72AB0212150D76AC0212150D5B
:103193000FAD0212150DD6AD0212150D00AF0212BE
:1031A300150D2BB00212150D21B10212150D39B1F7
:1031B3000212150D6DB10212150D8BB10212150D10
:1031C300D3B10212150D0CB20212150DC3B20212C5
:1031D300150D84B30212150DF7B30212150D73B456
:1031E3000212150D0FB50212150D35B60212150D8B
:1031F300F1B60212150D91B70212150D7EB8021227
:10320300150DD6B80212150D9CB90212150DBFB9D2
:103213000212150DD4BA0212150D1FBB0212150DA1
:103223007BBB0212150DE3BB0212150D07BC021284
:10323300150D2FBC0212150D74BC0212150D98BC8E
:103243000212150D1CBD0212150D05BE0212150D3D
:103253004ABE0212150D73BE0212150D11BF0212E2
:10326300150D7CBF0212150D8ABF0212150DB6BFD4
:103273000212150D97C00212150D00800512150DCF
:1032830038800512150D59800512150D9B80051206
:10329300150DFF800512150D09810512150D1981F4
:1032A3000512150D50810512150DF9840512150D22
:1032B300C1860512150DA5880512150D478905123E
:1032C300150DD1890512150D87C20212150DEBC21A
:1032D3000212150D49C30212150D94C30212150DE6
:1032E300AFC30212150DD6C30212150DF3C302129A
:1032F300150DFFC30212150D90C50212150DA9C5B8
:103303000212150D25C60212150D38C60212150D2F
:1033130048C60212150DECC60212150D58C802124A
:10332300150D6BC90212150D0BCA0212150D15CA24
:103333000212150D94CA0212150DA5CA0212150D1B
:10334300E4CA0212150D12CB0212150DDFCB0212C5
:10335300150D36CC0212150D6FCC0212150DC5CC0E
:103363000212150DE3CC0212150D31CD0212150D0B
:10337300FCCD0212150D4ACE0212150D97CE021284
:10338300150D1ACF0212150D44CF0212150D7ACF67
:103393000212150D89CF0212150DE8CF0212150D79
:1033A30060D00212150DA1D00212150DF1D0021238
:1033B300150D1CD10212150D36D10212150D50D167
:1033C3000212150D25D20212150D2FD20212150D60
:1033D3006AD20212150D7AD20212150D83D202128D
:1033E300150DD4D20212150DE8D20212150D0AD40E
:1033F3000212150D1FD40212150DB2D40212150DAF
:1034030026D50212150DCBD50212150DD6D50212F3
:10341300150D36D70212150D52D70212150D9ED770
:103423000212150D0CD80212150D3ED80212150DFD
:1034330058D80212150D9AD80212150DEDDA0212A0
:10344300150D85DB0212150DFCDB0212150D59DE7D
:103453000212150D71DE0212150D74DE0212150D26
:1034630080DE0212150D94DE0212150D9CDE02128F
:10347300150DD3DE0212150DC7DF0212150D51E033
:103483000212150DD3E00212150D53E10212150DB0
:103493002AE20212150D4CE20212150DE5E20212A8
:1034A300150D42E30212150D45E30212150DB4E3A7
:1034B3000212150D00E50212150D13E60212150D89
:1034C3009EE60212150DB1E70212150D76E80212FF
:1034D300150DA7E80212150DCDE80212150DD6E859
:1034E3000212150D05E90212150DB5E90212150DAB
:1034F30065EA0212150DD8EA0212150D7BEB0212D2
:10350300150DEEEB0212150D2DEC0212150D76ECD6
:103513000212150D31B90312150D9CB80312150DC6
:103523004FB80312150DCDB70312150D52B7031281
:10353300150DD2B60312150D88B60312150D2CB650
:103543000312150DDBB50312150D9EB50312150DF0
:1035530058B50312150D1DB50312150D49C00512FB
:10356300150DD2BE0512150D13B50312150DF6B4C4
:103573000312150D9BBD0512150D9CBC0512150DEF
:103583001EB40312150DA2B30312150D10C90612B2
:10359300150D36C80612150DBCC70612150DBFC68C
:1035A3000612150D50BB0412150D76BA0412150D33
:1035B300ACB90412150D1BB80412150DE4B70412AF
:1035C300150DB6B70412150D6AB70412150DD3B64F
:1035D3000412150D43B60412150D1DB60412150D74
:1035E300D2B50412150D9CB50412150D1FB50412A6
:1035F300150DBAB40412150D69B40412150D91B367
:103603000412150D01B30412150DB5B20412150DF4
:1036130030B20412150DEBB10412150D53BC051293
:10362300150DCFB10412150DCABA0512150DCDCA69
:103633000312150DA2C70312150D2AC50312150D8A
:1036430018C30312150DDCC20312150DD6C10312E4
:10365300150D7EBF0312150D77B00412150D49B079
:103663000412150D16B00412150D9AAF0412150DA0
:103673000ABF0312150D7EB10612150DE3AF061234
:10368300150DF1AE0612150D1FAE0612150DCFBDA9
:103693000312150D8FF30412150D69550012150D44
:1036A30036F30412150D01F30412150DCCF20412B6
:1036B300150D98F20412150D2BF20412150D13F2C9
:1036C3000412150DEEF10412150DBFEE0412150DC3
:1036D30092EC0412150D92EA0412150D18EA041265
:1036E300150DC9E90412150D83E90412150D25E919
:1036F3000412150D19A60512150D6CA50512150D4D
:103703008EBD0312150D7DA40512150DE1A2051240
:10371300150DA4A00512150D0E9F0512150D769E0D
:103723000512150D5B400000000080FB8F000100B7
:103733005D1687000100C918350004008E182500A6
:10374300020092182600020094182700020096181F
:1037530028000100A01829000100A118840004001A
:10376300A21886000100A6182A000100A7182B0042
:103773000100A8182C000100AC182D000800401609
:103783002E000100AD182F000100AE18300001001B
:10379300AF1831000100B0183200010048163300A1
:1037A3000100491634000100B118360001004A1621
:1037B30038000100B21839000100AB188300020081
:1037C300C718630001005A1664000100A9186500B8
:1037D3000100AA186D0001005B167100080038167D
:1037E30066000100C61843000100B7184400020038
:1037F300B81845000100BA1846000200BB1847007C
:103803000800521648000100BD184B000100BE1805
:1038130004000100CA18A1000100CD1837000100FF
:10382300CC1888000100CB183C0001004B163D006A
:103833000100B31849000200BF18670001005C16BD
:103843004D000200C1184E000100C3184F000200D2
:10385300C4183E000100511651000100B418520073
:103863000100B51853000100B618540001004C16AE
:103873000000000000000000000020018586000019
:1038830001002001858600000200200187860000D8
:103893000300200184860000040042016D800000C3
:1038A300050042017E80000006004201A080000066
:1038B30007002001AB800000100042018F80000050
:1038C300110020016C0A000000404201A0800000AA
:1038D30000804201D28106000000101100000700A1
:1038E30000003033000007001000303300000700F1
:1038F300014020330000070002402033000008008D
:103903000000203300000A000000E23300000A0038
:103913000100183300000C005500393300000C007F
:103923001C00423300001100040042330000110068
:103933004300233300001100510010110000110057
:10394300550010110000110067001811000011004C
:103953006F0018110000120055002101000014002F
:103963000E004222000000040000210400000204B3
:1039730000002904000003040000290400000504DA
:10398300000029040000000000000100F4360200DA
:10399300F4360300F4360400F43605001A2006005A
:1039A30000000700961908000A24000000000A001E
:1039B30000000B00FE230C028C350D0000000E00EE
:1039C300F4360F00F4360000000000000000000091
:1039D300000013001E25000000001500461E1600FF
:1039E300461E17011E251801E218190070241A003B
:1039F30070241B0000251C01521B1D01521B1E00BD
:103A03009A241F017636200092262100D219220023
:103A13009A1E23008C3500000000000000002601E0
:103A23009E232701E02628018C2329003E262A0015
:103A3300DA1A2B02FE232C0074262D0274262E0183
:103A4300BA192F0018193000B82400000000320002
:103A53000000330000003400000035000000360091
:103A6300000037000000380000003901521B3A0003
:103A730032263B00DA230001363601010001020140
:103A8300000103010001040106060502000007010D
:103A930000340801000F090401010D0100FF0E08A5
:103AA300000017020000190100FF1A0100011B01A9
:103AB30000FE1C0100081D0200001F01000120017F
:103AC3000001210200002301000F2402000026014F
:103AD300000127010008280200FF2A0100072B012B
:103AE30002402C0100002D0100012E0100012F01D5
:103AF30000FF30010B1D310800003A0100083B01B3
:103B0300000F3C0100013D0100FF3E0400004204A0
:103B13000000460400004A0400004E040000520462
:103B23000000560400005A0400000020202020203A
:103B3300202020202828282828202020202020205A
:103B4300202020202020202020202088101010104A
:103B5300101010101010101010101004040404049E
:103B630004040404041010101010101041414141CA
:103B730041410101010101010101010101010101B2
:103B830001010101010110101010101042424242C4
:103B93004242020202020202020202020202020282
:103BA30002020202020210101010206A007800C6FE
:103BB30025CC25D2256C00F000722578257E256B57
:103BC30000F0008A259025D2256600F0008A259012
:103BD30025D225670014009C25A225A82569001479
:103BE30000AE25BA25B425EE22E803362554254E2A
:103BF3002564000100000000006C25630001000043
:103C03000000006C2562000100000000006C2561CB
:103C1300000100000000006C25700001000000009E
:103C2300006C250103710301030103010301030177
:103C33000322030203010310030003000300030034
:103C430003000300030003420300032403060300ED
:103C5300030003040312032503230325032303049F
:103C630003040300030003000344030003000323CE
:103C730003000365032100350381030003050300EB
:103C8300030003000300032503230303027102302F
:103C9300016002110270020102020202028002109C
:103CA3000261023A0041006302730272026202433C
:103CB3000200021302380000020002040212020092
:103CC3000200020002000204020402370037003C33
:103CD30002440200023900000200026502000235BC
:103CE30002810200020502820283020002010171C5
:103CF30001010101011101010131010101010180F2
:103D030001100161013B0014006301730172016240
:103D13000143010001130106013D013500040112B5
:103D2300010001000100010001040104013301331A
:103D3300013C01440132013600000100016501002C
:103D430001350081010001050182018301000103A6
:103D53000071003001600011007000310220035037
:103D630004800010006100000014006300730072FF
:103D7300006200430000001300060000000000047E
:103D830000120000000000000000000400040037DF
:103D93000037003C02440000000000000000006502
:103DA30000000035008100000005000000830000D2
:103DB3000036000100060000000F000000000000B4
:103DC3000000000000000003FFFF00000403FFFFEA
:103DD3000000FFFF0FF4010005C4040320000100ED
:103DE300000B000000000000000003010F000000B2
:103DF30000000000000000000000000000000000C0
:103E0300000000000000000000000000000000D6D9
:103E1300271228DC270427E2271828E2272428E88A
:103E2300270427E2271828EE270427F4270427FA74
:103E330027042700280427062804270C2804270022
:103E4300000000000000000000000000000000006F
:103E5300000000000000000000000000000000005F
:103E6300000000000000000000000000006A2A13A8
:103E7300003A2A01006A2A0200E0290300E6290425
:103E830000EC290500F2290600FE293000162A332A
:103E930000222A3400282A11002E2A1400342A155D
:103EA30000102AFFFF00000A0000000200000004C7
:103EB3000000000800000010000000200000004087
:103EC300000000800000000001000000020000006C
:103ED30004000000080000001000000020000000A3
:103EE30040000007ECFDFDFDECDCDCCCBCACAC9C85
:103EF3009C8C7C7C6C6C5C5C5C4C4C3C3C2C2C1C2F
:103F03001C5100100000550010000067001800004D
:103F13006F00180000040042000043002300000368
:103F2300EAF5E5D5D5C5B5A5959585857575656519
:103F330055554545353525251515050AB2300282F7
:103F4300300594300788300C6A300D7630FF00005E
:103F530000160F00000B150B020002220F330000A6
:103F63000E01030507090B0D0F00020406080A0CD6
:103F73000D5A6967426565416C6C69616E636530B2
:103F830039303017181921301B1D1F3000034A49DF
:103F9300434E181A25050200011916181616182380
:103FA300030000393D3F373C3C362C442D3030165E
:103FB300181920231A1C1E300C0E020B040B0A07BF
:103FC30008000F02040201010101090200BE040AF4
:103FD300E80300000E00E8031E04280C1E05FF1072
:103FE3000804090822040303040AC082C083E99079
:103FF3001524F00241FC74F4120E648A088B09EB59
:104003005480604D800EEEFAEFFB122752EEFAEF6A
:10401300FB1221E8901524E0F91221FA8A0A8B0B8E
:10402300AE0AAF0BEE4F60208E828F83E0641A607E
:10403300D5EEFAEFFB1226FEE9F974FF6960CEEEC6
:10404300FAEFFB1221EE80CCAA08E5096480FB801D
:10405300047A007B0002438E74F7120E647AFF0227
:1040630053DD74F6120E64E9FEEAFF7A047B001254
:1040730046E4A808A909EA496034EF8A828B83A33E
:10408300A3A3F0EE8A828B83A31240E9E4F0A3F0AA
:104093009015311247097009901531E8F0A3E980B2
:1040A3003FE0FB8A828B83A3A3A3E06F70047900B4
:1040B3008031EAFCEBFD8A828B8312470970E4743A
:1040C300FF6F700C8C828D831240F0E4F0A380109C
:1040D300901531125B6E9015311240F0EAF0A3EBAC
:1040E300F079010254D5A3F08A828B83221266C22F
:1040F3008882898322C082C083EA1269553BF58393
:10410300E0FA90153180048882898312599D601CDE
:1041130088828983A3A3A3E0FBEA6B600574FF6B2A
:1041230070E588828983A3A3E0F9800279FF0241C5
:10413300FC74F4120E64EAFEEBFF8A82F583125BD1
:104143006E1226FEE9F50874FF6970030241EB7AEB
:10415300197B001221E2EA4B70030241EB8A828B46
:10416300837434125706A3A3EA2402FCE43BFD74D0
:10417300061214668E828F83124D9A12669D8A826E
:104183008B83A3A3A3A3A3A3A3A3ECF0A3ED124D3B
:10419300AAA3A3A3A3A3EA240AFCE43BFD740C1281
:1041A30014668E828F83125C08C812695538F583B2
:1041B300E0C0E0EA2416F582E43BF583D0E0F0EEBC
:1041C300240CF8E43FF98882F5831266A1EA2417E8
:1041D300F582E43BF583ECF0A3EDF088828983E478
:1041E300F0A3F0A9081221EE790102438EC082C028
:1041F3008390152F125B6E8000D083D08202150A44
:1042030074F4120E648A088B09ECFEEDFF7A08122F
:1042130042A17004791080351242D3A31242BD74B7
:104223000C1218B7126CA8A3A3A3A3126D9A90152E
:104233002912470990152960111246EC8003EAFC04
:10424300EB12470470F88C828D831242B102438EC5
:1042530074F4120E6489088A09ECFEEDFF7A0A12DF
:1042630042A17004791080331242C8E4F0A31242D1
:10427300B7E5091242B7A3EEF0A3EFF090152B12A6
:10428300470990152B60111246EC8003EAFCEB12F0
:10429300470470F88C828D831242B102438E7B00F7
:1042A3001222968A0A8B0BA80AA90BEA49221266E4
:1042B300C27900221253CEA3A322E5091253D3EEEF
:1042C300F0A3EFF0221242D38A828B83A3A3A3220B
:1042D3008A828B83E4F01240E9A3A3E508F02274F9
:1042E300F2120E64EAFEEBFF8C088D091227648B31
:1042F3000DA90DEA4960198A828B83A3A3A3EEF06B
:10430300A3EF1253CAE508F0A3E509F07900800290
:104313007901025B6474F4120E6474F7121620E9D7
:10432300FE8518828519837401F0EC7006EDC39441
:1043330006404D74036A4B604774011215DA880A0C
:10434300890B780A12152A7C127D007A007B00EE15
:10435300124393121558E9601CE4F50AF50B780A29
:1043630012152A74031215EA74021215E21227AC0D
:104373007402121558851882851983E0640170044C
:1043830079018002790074091215587F0402121A08
:10439300F912276A74022274E8120E6474FA121670
:1043A3002089128A168B178C088D091236BE8A143F
:1043B3008B15EA4B70057902024529AA08AB09A9B6
:1043C30012122782E9F50FA2E6401C90152F12590D
:1043D3009D6014E82419F582E439F583E0640170E3
:1043E30006E50FD2E6F50F7C067D007900AA18AB2F
:1043F300191221D0741F1218B7124DA26009E0548C
:10440300FCF0E044018003E054FC126D8012599DDE
:10441300602B741E1218B7E0FE88828983A31213DF
:1044230021EEFD74021218B7E05403FCAA08AB098D
:10443300A9121227227402121558E9700579010294
:10444300452974221218B712599D60128518828566
:104453001983E04404F074021218B71266BE742084
:104463001218B7124DA26005E044088003E054F728
:10447300F074211218B7124DA26005E044108003B6
:10448300E054EFF074241218B7E0C0E0740412187B
:10449300B7D0E0F074051218B7EEF07803851882F0
:1044A300851983E054046002780574251218B71245
:1044B3004B36E82510FEE43511FF1247DA6063AC92
:1044C3000AAD0BAA18AB1912275E74271218B7127C
:1044D3005AF4121526AC10AD11125D5C1215587505
:1044E3000C1E780C12152E750C27750D15780C12F1
:1044F300152A780A12152A8E0C8F0D780C12152A9C
:10450300780812152AA90FAC14AD15AA16AB171209
:1045130036CA7409121558E9FEAA0AAB0B12229C7B
:1045230080027E10EEF974068004EEF9740212150F
:10453300587F1002121AEEFCEFFDAA10AB11A90A64
:10454300122728740B2274EA120E6474FE121620CA
:10455300890B8A148B158C0E8D0F7E007F00750AD4
:104563000074181218B7124B3680111246FA12272C
:10457300B88B09EE2AFEEF3509FF050A1266A5502E
:104583002EE50A75F006124AED2403FEE43FFFA36D
:10459300A3E070E60EEE70010F88828983A3A3A3C4
:1045A300A31247098882898360C112590E80C2EE23
:1045B300FAEFFB1246E48A0C8B0DEA4B70030246BA
:1045C300D9750A008030A818A9198812891378129E
:1045D30012152A780812152A8A828B831246FA1238
:1045E30027BE7404121558126C98E50828F508E5DF
:1045F3000939F509050A1266A55077E50A75F0062B
:10460300A4F8A9F0E51028F582E511126681124697
:10461300F18A828B83A3125339F01253A2125334BB
:10462300F0E5082403F5085002050988828983E030
:1046330070C2EA2403081253A61246F1A385820826
:104643008583098A828B83A3A3A3A31246EC8C825E
:10465300F583E582458370030245C9AC08AD09AA19
:1046630082AB8388828983E0F912278E8A088B09BB
:104673008082780C12152A8E088F09780812152A61
:1046830074201218B7124B2C12152EE4F508F509F5
:10469300780812152A74221218B7124B2C12152EF1
:1046A30074221218B7124B2C12152E7508007808B5
:1046B30012152E750801780812152EAC0EAD0FAA2F
:1046C30014AB15A90B124543121558E9FEAA0CABFE
:1046D3000D12229C80027E10EEF97402121558808E
:1046E3002F1222968A088B0922E0FCA3E022E085A0
:1046F3000882850983F022126D6EAA0EAB0FA90BF7
:1047030022FD8C828D83125B72EA4B22AA12AB13B9
:104713007F0E02121AEEF902471374EC120E64892B
:104723000A8A108B11ECFEEDFF74141218B71249AC
:104733003070030247C0A808A9097C00800D124904
:104743001350010B1249435001090C850C82850D4E
:1047530083E0FAECC39A40E674016A700AA3E0703E
:1047630006750E01750F00780812152A780E1215BA
:104773002A741C1218B712490D12152EE4F50CF504
:104783000D780C12152A741E1218B712490D121542
:104793002E741E1218B712490D12152E750B0078C0
:1047A3000B12152E750B04780B12152E12453912A8
:1047B3001558E9FEAA08AB0912229C80027E10025A
:1047C30048FAAA0EAB0F7F0C02121A850A82850BD8
:1047D30083E0F91227A022EEFAEFFB1222968A0A4F
:1047E3008B0BEA4B22F8E4350DF98882F583124BE3
:1047F3001CA322851082851183E0F8E508C3982263
:1048030074EC120E64890A8A108B11ECFEEDFF74AE
:10481300141218B71248FFF50875090074027808D6
:1048230012175F85080E85090FAA0EAB0F12669942
:1048330070030248F87900804AE9F5127513007491
:1048430002781212175FE50C2512FCE50D3513FDF6
:104853008C82F583A31257018C828D83A3125E4B46
:10486300F0EC2403FC50010DF5828D83125E4CA302
:10487300F08C828D83125E4BA3A3F0EA2404FA50DA
:10488300010B09850C82850D83E0F8E9C39840A9E3
:10489300740168700AA3E07006750E01750F007845
:1048A3000812152A780E12152A741C1218B7124909
:1048B3000D12152EE4F50CF50D780C12152A741E45
:1048C3001218B712490D12152E741E1218B7124979
:1048D3000D12152E750B00780B12152E750B07781C
:1048E3000B12152E124539121558E9FEAA08AB0909
:1048F30012229C80027E10EEF90247C9124903225C
:10490300125208850C82F583E022E0F50B780B2226
:10491300EC75F003A4FAABF0E50C2AFAE50D3BFBCA
:104923008A82F583124B49F0EA2402FA22124903E0
:1049330075F003A4F50EE5F0F50FAA0E126D05222E
:10494300F5828B83124CFE124B42A3A3F0E824039F
:10495300F82274E8120E6474FE121620124B9012A1
:1049630018B7124B368009EE2402FEE43FFF050818
:104973001247F6502FE50875F00D124AED2404FE98
:10498300E43FFFE070E8A3E070DDEE2405FEE43FC2
:10499300FFE82404F50AE439124B0860D11247CE2C
:1049A300EE2980C61247DA7003024AE88A0E8B0F9B
:1049B3007508008018E50C2409FAE4350DFB8A829A
:1049C300124B16124B3EF08C0E8D0F05081247F654
:1049D3004003024A85E50875F00D124B50AA82ABDD
:1049E300831247F1F0E50C24021247E8124B65A34A
:1049F300F0E50E2404F50E5002050F850C82850D9B
:104A030083E070C7E50E2402FCE4350FFD850E82BA
:104A1300850F83A3A882A9838A828B83E07096E59E
:104A23000C2404F512E4350DF513851282124B168E
:104A3300F0E50C2405F516E4350DF51785168212FD
:104A43006076124B7A2407F8E4350DF98882124B0D
:104A530016124B88F0E50E2405F50E5002050F855E
:104A63001282851383124B0F70030249CEAC0EAD35
:104A73000FE50C240BF582E4350DF583124B24026C
:104A830049CE780A12152A8E0C8F0D780C12152A2E
:104A930074221218B7124B2C12152EE4F50CF50DD7
:104AA300780C12152A74241218B7124B2C12152ED7
:104AB30074241218B7124B2C12152E75080078089F
:104AC30012152E750809780812152EAC14AD15743D
:104AD3000B1218B7124AFD121558E9FEAA0AAB0BBE
:104AE30012229C80027E1002452DA4F8A9F0E51045
:104AF30028F582E511124C9AEE22125B72A9091273
:104B03002728740B22F50B850A82F583E0F9122717
:104B130094E922F583124B1C22E0850E82850F83D4
:104B230022124D038A0E8B0F22E0F5087808228E9D
:104B3300828F83E0F510A3E0F51122124B4222127B
:104B430040EA124B4922A3E0888289832212683308
:104B530085820C85830D124B1CF0850C82850D8399
:104B6300A322124B6922A3F088828983A3E0850ED6
:104B730082850F83A3A322F08516828517831253A0
:104B8300B7F0E50C22A3A3124B69A3A322851882D5
:104B9300851983EAF0A3EBF089098C148D157E0047
:104BA3007F00750800741A2274EA120E64890B8A56
:104BB300108B118C0E8D0F7E007F00750A0074160A
:104BC3001218B71252048003124C67850C82850DAC
:104BD300831266AB40F2126695607EA808A9097538
:104BE3000A008003124CA3850C82850D83E0FAE54D
:104BF3000AC39A40EF780812152A8E0C8F0D780C91
:104C030012152A741E1218B7124C6112152EE4F5F0
:104C13000CF50D780C12152A74201218B7124C617A
:104C230012152E74201218B7124C6112152E750A24
:104C330000780A12152E750A0A780A12152EAC0E80
:104C4300AD0FAA10AB11A90B124543121558E9FE7B
:104C5300AA08AB0912229C80027E10024718E0F5D5
:104C63000A780A22E50A75F005A4F8A9F0E50C28EC
:104C7300F582E50D124C9AA3A3A3126CACA3A3E097
:104C8300F91227A68B09EA2403F8E43509F9EE287B
:104C9300FEEF39FF050A2239F583A3A882A98322EF
:104CA300E50A75F005A4FAABF0124CF2858214857F
:104CB3008315124B4A126D86124CFEF0E514240242
:104CC300FAE435158A12F5138A82F583124CFEA392
:104CD300F0E82403FCE439FD851482851583A3A33E
:104CE300A3124D038A128B13A812A913050A22E5F6
:104CF3000C2AF582E50D3BF583A322124B4AA3222E
:104D0300E0FAA3E0FB851282851383E0F912278E74
:104D13002274F6120E6474FE121620E9FE740C124D
:104D230018B7124D9A124DA2124DAAE0C0E07401B9
:104D33001218B7D0E0F0A818A919880889097808CB
:104D430012152A750802750900780812152A7416B7
:104D53001218B7124B2C12152E74151218B7121302
:104D63002174161218B7124B2C12152E7416121822
:104D7300B7124B2C12152E750800780812152E75D4
:104D8300080B780812152EEEF912454312155874C4
:104D9300021215580254D5126CA38882F58322E0BF
:104DA30085188285198322F088828983A32274F16E
:104DB300120E6474EB121620EAFEEBFFC200EA2423
:104DC30020F8E43F8808F5098882F583C3E094035B
:104DD300A3E09400500579010251E590152F126D5F
:104DE3009C74021218B7126D9C740E1218B7E4F07B
:104DF300A3F0740A1218B7E4F0A3F0740C1218B7F6
:104E0300E4F0A3F0EA2422F8E43F880AF50B888251
:104E1300F5831266A174041218B7AA82AB83122712
:104E2300588A0C8B0DA80CA90D740A1218B7126DB1
:104E33009C850882850983125B6EEAC398F8EB9917
:104E4300F9850A82850B83E028F8A3E039F9740C0D
:104E53001218B71266BE74081218B7E0901528F03E
:104E6300EE2414F508E43FF509850882F583E0F99B
:104E73001236BE8A828B83E5824583700C90152F90
:104E8300E4F0A3F079020251E5125238602BEE24CC
:104E930004F50AE43FF50BA3121321740B1218B7A0
:104EA300E0FD74061218B7E05403FC1252471227B0
:104EB300227402121558E9700C90152FE4F0A3F038
:104EC30079030251E5125247122782E9F50E850A4A
:104ED30082850B83125B6EEAFCEBFD90152980043F
:104EE3008882898312599D7003024FD888828983EF
:104EF300A3A3125204C3EA950CEB950D40E28882FA
:104F03008983A3A3A3A3C3E09CA3E09D40D2E8FCB1
:104F1300E9FD74041218B7E05407700D74091218F0
:104F2300B7E0640B7003024FDCE50EA2E640030218
:104F33004FDCEE2419F582E43FF583E06003024F72
:104F4300DC74021218B7125210707E74021218B772
:104F530012599870747C00850882850983E0F912E0
:104F6300369A74011218B77401F074091218B71243
:104F730051ED1218B7E0F50C780C12152E740712C8
:104F830018B7121321750C01780C12152E74081220
:104F930018B7126853F50C780C12152E74051215F8
:104FA300DA880C890D780C12152A74091218B712B5
:104FB300522F1218B71251F81218B712521E1215A7
:104FC300587C0112524712369A90152FE4F0A3F041
:104FD30079050251E57C007D0074041218B7E0F8EE
:104FE30054036003025100E8540460057E840251B7
:104FF3003F74091218B7E0F8C3941740030250FC3A
:10500300E8F50A750B007402780A12175F7412250B
:105013000AF582743E350BF583E493F8740193F932
:10502300E84970030250FC850882850983E0C0E0EB
:1050330074101218B7D0E0F0740C1218B7125B6E2C
:1050430074111218B7126D9C740A1218B7125B6EA2
:1050530074131218B7126D9C74101215E2888289AA
:10506300831210998B09A909740E1218B7126D9C3B
:10507300EA49604B74091218B7E0F5087509007422
:1050830002780812175F74142508F582743E3509F7
:10509300F583E493F87401938882F583E58245836D
:1050A300601274021215E2121099740E1218B712DC
:1050B300599D600B740E1218B7125B6E12229C740A
:1050C300091218B7E0F86054740268604F740368FB
:1050D300604A74066860457408686040740C6860D0
:1050E3003B74116860367413686031741568602C02
:1050F300740B6860277E0080437E82803FEC4D60A6
:105103002B8C828D83A3A3A3125238601F740212C7
:1051130015E2121099E9FE74FF6E700B90152FE4DF
:10512300F0A3F0F90251E574016E701074041218C3
:10513300B7E0540460047E8380027E8174021218F7
:10514300B7125210707574021218B7125998706B17
:1051530074041218B7E0FA5410706074011218B78F
:10516300EEF074091218B71251ED1218B7124B2C46
:1051730012152E74071218B7121321750801780837
:1051830012152EEA131313541F64015401F5087802
:105193000812152E74051215DA8808890978081281
:1051A300152A74091218B712522F1218B71251F890
:1051B3001218B712521E121558D20090152FE4F090
:1051C300A3F0EE70047900801974846EA200700A53
:1051D30050047907800C790680085004790980020D
:1051E30079087415121558025908E0851882851933
:1051F30083F0740822E02406FAA3E03400FB740968
:105203002212520822E0F50CA3E0F50D22125C08ED
:10521300C82415F582E438F583E022A3E0C81269B7
:105223005938F583E0F912274C740722126C4A129D
:105233006D6A740922A3A3A3125C088882F583E52F
:1052430082458322850A82850B83125B72850882DD
:10525300850983E0F92274F4120E648A088B09EC41
:10526300FEEDFF7C067D0079001221D08508828542
:105273000983E054FCF8A3E0F98E828F83E05403A2
:10528300FAE84A850882850983F0A3E9125342A20A
:10529300E25004D2F08002C2F0850882850983E0DF
:1052A30054FBF0A2F0E433F50A750B007402780A9C
:1052B30012175FE0450A125342A2E385088285096B
:1052C30083E050044408800254F7125342A2E4508E
:1052D30004D2F08002C2F0850882850983E054EF8E
:1052E300F0A2F0E433F50A7404780A12175FE0457C
:1052F3000A125D62850882850983E0540460108E7A
:10530300828F83E0FAA3E0F9EA1262F050010F8E74
:10531300828F83125334A3A31262D0850882850936
:1053230083A3A3A3A3A3F0EE2402FAE43FFB024367
:105333008E125339A322E0850882850983A32212A2
:10534300570AE02274F7120E648A828B83E05403B7
:105353008C828D831253C554041253BE54081253C6
:10536300BE5410F88C828D83E048F0A3AC82AD83E9
:105373008A828B83E0540460101253A21253B81232
:105383004DAA1253AEFC50010D8A828B83A3A3A3B3
:105393001253B71253CA1253AEFAE43DFB803EEAEE
:1053A3002402F8E43BF98882F583221253B8A3F070
:1053B300EC240222A3E08C828D8322F88C828D83DD
:1053C300E0481240EAE0221253CE221253D3A32222
:1053D300F08A828B83A3A3A3A3221226F87F010260
:1053E300121AC082C08390152B80048A828B831289
:1053F300470960138A828B83A3A3E0F8E968600BF3
:1054030074FF6870E680047A007B000241FC74F04C
:10541300120E648A088B09ECFEEDFF1227648A0CD6
:105423008B0DEA4B60787C0080010C850C82850D26
:1054330083A3A3A3A3A3A3A3E0F8ECC398505FECB7
:10544300F50E750F007403780E12175F850C8285B5
:105453000D83A3A3A3A3A3A3A3A3E0250EF8A3E013
:10546300350FF98882F583E493FA740193FBE50819
:105473006A7003E5096B70B2A3A3E493FA74019312
:10548300FBEE6A7002EF6B70A174101218B712660C
:10549300A189838882740812142279018002790019
:1054A30080031215587F0802121A74F6120E641242
:1054B30054DA6005125B6B80047A007B00801374FE
:1054C300F6120E641254DA6005125B6980047A00E6
:1054D3007B007F0202121A1227648A828B83E58281
:1054E30045832274F7120E64E9FFEAFCEBFD901585
:1054F3002D80048882898312599D6046888289831E
:10550300A3A3E06F70ED7E0080010E88828983A3E0
:10551300A3A3E0FAEEC39A50DAEE75F003A4FA857A
:10552300F008AB0888828983A3A3A3A3E02AFAA384
:10553300E03BFB8A82F583E06C7003A3E06D70CAE5
:1055430080047A007B000253E074F6120E64122783
:105553007C8A828B83E58245836006A3A3E0F9807E
:105563000279000254D574F6120E64ECFF12277C04
:105573008B09A909EA496015EA2402F582E439F5A1
:1055830083EF6005E0D2E68003E0C2E6F00254D583
:1055930074F1120E64EAFEEBFFECFAEDFBEE4F70D2
:1055A300030256FEEC2402F50CE43BF50D8C828DD0
:1055B30083A3AC82AD838E088F09750A00E91213A9
:1055C300D2044142CB564344DD56E0E29656E8E925
:1055D300495621083B560949560A58560B96561008
:1055E3003B56183B561949561A58561B9656203B9C
:1055F3005621495622585623965624A75625B05667
:1056030026B95627C256283B562949562A58562B9F
:1056130096562CA7562DB0562EB9562FC256303B50
:10562300563149563849563996563AC256EA96562D
:10563300F0C256F1EF56FE568E828F83125701EC5D
:10564300FAEDFB0256FE1262C98C828D83F00A0AC0
:10565300AB0D0256FE8E828F8378081218488A8219
:105663008B83E5081257067808121848E5098C82DF
:105673008D8312570678081218487410780812158B
:10568300C1850C82850D83E508F0EA2403FA506B8B
:105693000B80688E828F8312131D12224E740412A4
:1056A3001558805778081215267C0580467808120D
:1056B30015267C06803D78081215267C07803478F1
:1056C300081215267C08802B78081215268E828FE7
:1056D30083E02401FCE43400800F78081215268E41
:1056E300828F8312589CFCE439FD800978081215D7
:1056F300267C107D00125D5C121558025908125E5B
:1057030051F02212570A22F08E828F8322C082C068
:1057130083E91213D203202F2857383A2857E0E29F
:105723002857002C577901800279000241FC74F25A
:10573300120E6474FE121620EAFEEBFF8C088D092C
:105743001227A68518828519837401F0A3E4F085D6
:105753001882851983E0600C750C01750D007800C3
:1057630079008038750CFF750DFFEA24FFF8EB34E0
:10577300FF8028850882850983E0C0E0EE28F58252
:10578300EF39F583D0E0F0850882850983A385820C
:1057930008858309E8250CF8E9350DF9EAFCEBFDEA
:1057A300EC24FF1AED34FFFBEC4D70C774021215A5
:1057B30058025B64E924F8607814607914607A1401
:1057C300607B24FB606B24F8606714606814606975
:1057D30014606A24FB605A14605B14605C14605D9F
:1057E30014605E14605F146060146061146042149E
:1057F30060431460441460451460461460471460A9
:105803004814604914602A14602B24F9602714603B
:105813002C146039245A602514602214601F24FA62
:10582300601314601014601524FA60211460228040
:1058330024790180227902801E7903801A790480F9
:1058430016790580127906800E7907800A79088017
:105853000679108002790002150A74F7120E64E9C2
:10586300FE74446E600574436E700C8A828B8312DF
:10587300589CFAE439801574426E600574416E7069
:105883000E8A828B83E02401FAE43400FB80071242
:1058930027A0E9FA7B000253E01246ECF9EC24025C
:1058A3002274F1120E64EAFEEBFFEC2406F8E43DE9
:1058B3008808F5098882F583124709700479018005
:1058C300448C828D8312590D8A0A8B0B850882853D
:1058D3000983E0F508A3E085080CF50D750E007843
:1058E3000C121526AC0AAD0BEEFAEFFB125D5C123F
:1058F3001558740F1218B712523B6007E50AF0A34C
:10590300E50BF079007F0702121AA3A3A3A3E0F922
:105913001227A62274F0120E6474F8121620890A54
:105923008A088B09ECFEEDFFA818A919880C890DCC
:10593300780C12152AA90A124394121558E9700417
:105943007901804C74181218B7125A63741A12181A
:10595300B712520474061218B712599D780C6016C8
:1059630012152A74021215EAAA0EAB0F1227AC7491
:1059730002121558801A12152A780E12152AEEFCF7
:10598300EFFDAA08AB09A90A1227BE740412155821
:1059930074080254A5126C4AA3A3126CA3E849220B
:1059A30074F0120E6474FE1216208A0C8B0DECFE3A
:1059B300EDFF851882851983E4F0A3F01227708A1E
:1059C300088B09EA4B602FA818A919880E890F784C
:1059D3000E12152AE4F50EF50F780E12152A79002A
:1059E300EEFCEFFDAA0CAB0D85088285098312102E
:1059F300997404121558851882851983125B6E7485
:105A0300020254A574F0120E648A088B09ECFEEDB1
:105A1300FF1227708A0A8B0B74121218B7125A637B
:105A2300E50E450F600A850E82850F83E4F0A3F02F
:105A3300EA4B6027780E12152A74121218B7121344
:105A4300217901EEFCEFFDAA08AB09850A82850BDB
:105A5300831210997404121558800279C10254A854
:105A6300126C902274F1120E64ECFEEDFF8C82F541
:105A730083A3A3A3A3A3E0A2E1506E1227D0E9F569
:105A83000A7069740F1218B712640390152512591E
:105A93009D6013AC08AD09EEFAEFFBE0F583888255
:105AA300121099E9603EE5082403F8E435098808F3
:105AB300F5098882F583125B6E8E828F8312590DEE
:105AC3008A0C8B0DAC0CAD0D850882850983125AA7
:105AD300F41215268E828F83A3125B69125D5C120A
:105AE30015588008750A878003750A88A90A025920
:105AF30008125208750E00780C2274F2120E648993
:105B030008ECFEEDFF8C82F583A3A3A3A3A3E0A27D
